:020000040000FA
:0400000080313728EC
:100008007E1480314E01961E0A280B2813288C1E58
:100018000E280F2813288331CC23803135280B1F55
:10002800162817283528191C1A281B2826280F1CBB
:100038001E281F282628400145088A0044080A006F
:1000480080313528991E29282A2835288F1E2D28E1
:100058002E283528400139088A0038080A008031DE
:1000680035287E1009008031392884313E248031BA
:10007800C10084313F248031C20084314024803162
:10008800C300F001F101F201F301F401F5012030A0
:100098008400003085001C308431082480317E10B3
:1000A80040018131EF294001BE003E087206031D60
:1000B8005E285F2860282429F101F0017208BC003D
:1000C8000630BC36890B65283C080139BD003D085F
:1000D800F1067208BC000430BC36890B70283C0855
:1000E8000239BD003D08F1067208BC000230BC367A
:1000F800890B7B283C080439BD003D08F1067208CD
:100108000839BC003C08F10672080439BC0001300B
:10011800BC35FF3E031D8C283C35BD003D08F1066B
:1001280072080239BC000330BC35FF3E031D982815
:100138003C35BD003D08F10672080139BC000530A8
:10014800BC35FF3E031DA4283C35BD003D08F10623
:100158003E08BC000630BC36890BAF283C08013984
:10016800BD003D08F0063E08BC000430BC36890BD3
:10017800BA283C080239BD003D08F0063E08BC001C
:100188000230BC36890BC5283C080439BD003D083F
:10019800F0063E080839BC003C08F0063E08043961
:1001A800BC000130BC35FF3E031DD6283C35BD00E0
:1001B8003D08F0063E080239BC000330BC35FF3E5E
:1001C800031DE2283C35BD003D08F0063E08013914
:1001D800BC000530BC35FF3E031DEE283C35BD0094
:1001E8003D08F00671088D0071098C000B30400144
:1001F800BC006230890BFE28BC0BFE2800004001C1
:100208008D018C0134304001BC00F130890B0A2982
:10021800BC0B0A29003240013E08BC003C08F20031
:1002280070088D0070098C000B304001BC006230F2
:10023800890B1C29BC0B1C29000040018D018C0175
:100248000800F80078087206031D2B292C292D298F
:10025800EE29F101F0017208F6000630F636890B36
:10026800322976080139F7007708F1067208F60096
:100278000430F636890B3D2976080239F7007708ED
:10028800F1067208F6000230F636890B482976081E
:100298000439F7007708F10672080839F60076087D
:1002A800F10672080439F6000130F635FF3E031DE9
:1002B80059297635F7007708F10672080239F600F1
:1002C8000330F635FF3E031D65297635F7007708BC
:1002D800F10672080139F6000530F635FF3E031DB8
:1002E80071297635F7007708F1067808F6000630A8
:1002F800F636890B7C2976080139F7007708F0066D
:100308007808F6000430F636890B87297608023912
:10031800F7007708F0067808F6000230F636890B01
:10032800922976080439F7007708F0067808083922
:10033800F6007608F00678080439F6000130F6353C
:10034800FF3E031DA3297635F7007708F0067808E5
:100358000239F6000330F635FF3E031DAF29763526
:10036800F7007708F00678080139F6000530F63509
:10037800FF3E031DBB297635F7007708F0067108A4
:1003880040018D0071098C000B30F6006230890B3A
:10039800CB29F60BCB29003240018D018C0134307A
:1003A800F600F230890BD629F60BD6297808F60024
:1003B8007608F200700840018D0070098C000B303F
:1003C800F6006230890BE629F60BE6290032400177
:1003D8008D018C01080040018C018D018E01833153
:1003E8006D23813105304001C0000F30BF00F1306E
:1003F800890BFC29BF0BFC29C00BFC29003080317C
:100408005720813105304001C0000F30BF00F13066
:10041800890B0C2ABF0B0C2AC00B0C2AFF30803129
:100428005720813105304001C0000F30BF00F13046
:10043800890B1C2ABF0B1C2AC00B1C2A00308031D8
:100448005720813115304001C0004B30BF00BE300D
:10045800890B2C2ABF0B2C2AC00B2C2A0000E93050
:100468004001BC000330BD00843114248131AC301C
:100478004001BC000330BD0084311A248131993019
:100488004001BC000230BD0084310E24813143019B
:10049800121690168B170B1709304001C0001E303A
:1004A800BF00E430890B562ABF0B562AC00B562AC8
:1004B8000000502A803137287508203E86008701C1
:1004C800810142011D1D692A6A2A752A7508203E84
:1004D800860087018114400135088A0034080A0023
:1004E800823142019D1C792A7A2A852A7508203E84
:1004F800860087010115400133088A0032080A0086
:1005080082317508203E86008701010803198D2A6B
:100518008E2A952A400131088A0030080A00823163
:10052800982A833154238231080040014308031973
:100538009E2A9F2ACA2A4208FA004108F900C10ADD
:100548000319C20AFA36F90CFA36F90CFA36F90C1C
:1005580000307A028030031979020318B42AB52AC8
:10056800C52A4208FA004108F900FA36F90CFA36A9
:10057800F90CFA36F90C79087F3981312521823155
:10058800CE2A7F30813125218231CE2A3A08813125
:100598002521823108004E01991260304001BC00CB
:1005A8000230BD0084311A248231083042019F0094
:1005B80090309D0024309E0044309B009C014230C6
:1005C8004001BC000430BD0084312624823136301D
:1005D8004001BC000430BD008431202482313A300F
:1005E8004001BC000430BD0084312C24823140011C
:1005F800BB01F501F401F3014E0199160800400111
:10060800980199019A01920193018F3094007E011B
:10061800CE01C301B801E501C401B901CF01BA0196
:10062800C501D001FF30BB00FF30C600FF30D1004C
:10063800FF30BC00FF30C700FF30D2000830E800B0
:1006480011307D01C5001130BB0016307E01A400B9
:100658000130A5000F30A60010307D01C600123011
:10066800CB00080011307D01C5001030C6007E01A6
:10067800A1011630A400403043018F0005309000DE
:100688008D014E01191498304001BC000330BD00A3
:1006980084311424833140019414430190120800DA
:1006A80042011908F6007508283E86008701760879
:1006B80081000130F6007608F50708307502031C42
:1006C800662B672B682BF5010130F6007608F307D7
:1006D8000800843100248331833136238331833108
:1006E800032383318331DB2383318331BD2383317A
:1006F8008331832383318231CF228331080049300B
:100708004B019F009F309D009C014E018C12961654
:1007180041304001BC000430BD0084310E248331D7
:1007280080304B019E0008004E010F1C9C2B9D2B16
:10073800AB2B4001440845040319A32BA42BA92B78
:1007480045088A0044080A0083314E010F1008004A
:100758004001C3013A088331F62383314201190865
:10076800F70077084001BA004B019C014E018F1237
:1007780008000E307C0191009201930194019501CB
:100788000230960097019801990182309000080084
:100798004E018C124001360837040319D42BD52B8F
:1007A800DA2B37088A0036080A008331080010302F
:1007B80051018D008F019101053093009001920144
:1007C800101CE72BE82BE42B08004001C301430170
:1007D8000C08F60076084001BA004B019C014E0156
:1007E8000F100800F6004E010F1EFB2BFC2BF72BF9
:1007F800760842019A0008004F0196019701980176
:1008080099019A019B010800640080010131890B5C
:10081800092C003440013D08B7003C08B600080028
:1008280040013D08C5003C08C400080040013D08DF
:10083800B9003C08B800080040013D08B3003C0876
:10084800B200080040013D08B5003C08B4000800AB
:1008580040013D08B1003C08B000080005344034B0
:100868000034013442011D121D160800833154233F
:0E087800843108000134003401340800080007
:020000040001F9
:0A000E009C3FFF3F9F3FFF1FFF3F95
:00000001FF
